:1000000001308A00D5290000FF00030E8301A10002
:100010000A08A0008A010408A2007708A300780853
:10002000A4007908A5007A08A60003170D08031399
:10003000A70003170F080313A80003170C080313E6
:10004000A90003170E080313AA00831383128B1E43
:100050002B280B194C28220884002308F7002408B9
:10006000F8002508F9002608FA00270803178D0074
:100070000313280803178F000313290803178C00A4
:1000800003132A0803178E00031320088A00210E89
:100090008300FF0E7F0E09008A110A124F28010803
:1000A000063EC00040088100AD0B59287D30AD00F0
:1000B0002C140B118A110A122B28501D4F230000FB
:1000C000D62ABA2746003E08003A03197428013A96
:1000D00003197B28033A03198228013A03198A2855
:1000E000073A031990289828DF3083168500831279
:1000F0003F0885009828F3308316860083123F0856
:10010000860098280030AB008316870183123F08D1
:10011000870098288316880183123F088800982852
:10012000831609108910091183123F088900982845
:1001300008001A30F700F70B9B28000083160910FF
:100140008312091083160911831209110330BE00AE
:100150003808BF00632083168910831289141A306F
:10016000F700F70BB128000083168910831289105D
:10017000080034308400831300080319CC280230AF
:10018000F800F701F70BC228F80BC1289730F700E9
:10019000F70BC828800BBF2808008316891083122C
:1001A00089103830B80099200F30B400B9200130E0
:1001B000B80099200A30B400B9200C30B80099205A
:1001C0000A30B400B9200630B80099200A30B400D3
:1001D000B9208A110A12012A1A30F700F70BEE280B
:1001E0000000831609108312091483160911831263
:1001F00009110330BE003D08BF006320831689103B
:10020000831289141A30F700F70B042900008316B3
:100210008910831289100800350B0F2912294030EC
:10022000B6001329B60101303402B607360880380B
:10023000B700B800992008000B08B4008B13831690
:1002400003178C170C140000000083120313B41B57
:100250008B1703170C087F39031970290313B40097
:1002600003170D080313B50003170F080313B60097
:100270003408BD00EC20350803178D000313360841
:1002800003178F0003130B08B7008B138316031794
:100290008C170C140000000083120313B71B8B177C
:1002A00003170C0D0E0D7F39031970290313B400C9
:1002B00003170D080313B50003170F080313B60047
:1002C0003408BD00EC20350803178D0003133608F1
:1002D00003178F008D0A03198F0A03131C290317B4
:1002E00003130800BC010408BB003C10831B3C1432
:1002F000350EF038B700B707E23EB800323EBA001C
:1003000035080F39B807B807BA07E93EB900B90789
:10031000B907340E0F39B907BA07B90DBA0DBA09C2
:10032000BA0D34080F39BA07B70D0730B6000A30D6
:10033000BA07B903031C9829B907B803031C9C2901
:10034000B807B703031CA029B707B603031CA429E9
:1003500036308400831307303B053B1384073A3063
:10036000040203193B170008F700031DBF293B1BBC
:10037000BF293B1AD129BB19BF292030C229BB157F
:100380003B123030F707B5010408B4003510831B69
:1003900035147708BD00EC20340884008313351829
:1003A0008317840A3B1FAF29080003081F39830005
:1003B000FF30AB002C10AC107D30AD00AF01AE01B2
:1003C0000230B100BC30B000B301B20183161F147B
:1003D0009F141F159F1107309C0083131F109F103F
:1003E0001F159F111F1383121F179F1783169F1727
:1003F00083121F1483160108C03903388100831249
:10040000CD284130BD00EC204D30BD00EC203A300D
:10041000BD00EC200A30B4000130B5000C214130A1
:10042000BD00EC205030BD00EC203A30BD00EC2087
:100430000130B4000230B5000C215D3003178D008F
:1004400000308F0003131C210730B4000230B500C8
:100450000C21603003178D0000308F0003131C2126
:100460000D30B4000230B5000C218B16C0308B0467
:100470002C1C672A2C100830F8001F08C739780494
:100480009F001A30F700F70B432A00001F151F19B1
:10049000472A83161E088312AE001E08AF000430E0
:1004A000B4000130B5000C21093084002F08B500DC
:1004B0002E08B40072210D30B4000130B5000C21BB
:1004C000093084003108B5003008B4007221F330DF
:1004D00083168600831206187B2AAC140430B400FD
:1004E0000230B5000C214E30BD00EC20F3308316F5
:1004F000860083120615F330831686008312861851
:10050000A02AAC10DF308316850083128512F330E9
:1005100083168600831286118316860083120611C5
:100520000430B4000230B5000C214630BD00EC2090
:100530000B30B4000230B5000C214630BD00EC2079
:10054000AC1CD12A31082F02031CBF2A031DAC2A80
:1005500030082E02031CBF2ADF3083168500831269
:100560008516F33083168600831286150B30B4008F
:100570000230B5000C214E30BD00EC20D12ADF3016
:100580008316850083128512F3308316860083124A
:1005900086110B30B4000230B5000C214630BD008E
:0605A000EC20382A630084
:02400E00723FFF
:00000001FF
;PIC16F877A
;CRC=1D4C  CREATED="26-jun-24 07:26"
